:0E000000B0C6FECFFDCFFCCFFBCFFACFF9CFBD
:10000E00F8CFF7CF0CC8F5CFE0C7F3CFF2CFF1CFD3
:10001E00F0CFEFCFEECFEDCF0000000000000000DC
:10002E000000000000000000004040404040404002
:10003E0000400000000000A0A0A0A00000000000F2
:10004E0000000000000014147E2828FC5050000010
:10005E0000002070A8A0A07028A8A87020000000A2
:10006E0000649498986E191929260000000000303B
:10007E0048483060948888740000000000808080BA
:10008E008000000000000000000000204040808042
:10009E0080808040402002000080404020202020B0
:1000AE002040408000000020F8705000000000004A
:1000BE00000000000000002020F8202000000000BA
:1000CE000000000000000000000060602040000002
:1000DE000000000000F8000000000000000000001A
:1000EE000000000000006060000000000010101012
:1000FE00202020404040808000000070D8888888F2
:10010E008888D870000000000010305010101010B9
:10011E00101000000000007088880810204080F841
:10012E000000000000708888083008088870000001
:10013E00000000103030505090F8101000000000F9
:10014E0000F88080F0080808887000000000007039
:10015E00888080F0888888700000000000F8081001
:10016E0020202040404000000000007088888870E9
:10017E0088888870000000000070888888780808D9
:10018E0088700000000000000000606000006060E9
:10019E000000000000000000606000006060204071
:1001AE000000000000183060C06030180000000031
:1001BE0000000000F80000F8000000000000000041
:1001CE0000C06030183060C00000000000708888E9
:1001DE0008102020002000000000003C4281B98958
:1001EE00B9AABC80413E0000002050888888F8885B
:1001FE0088880000000000F0888888F0888888F0E1
:10020E000000000000708880808080808870000070
:10021E00000000F088888888888888F00000000038
:10022E0000F8808080F8808080F80000000000F8E0
:10023E00808080F0808080800000000000708880C8
:10024E00808098888870000000000088888888F870
:10025E00888888880000000000E040404040404010
:10026E0040E0000000000010101010101090906080
:10027E0000000000008890A0C0C0A09088840000FC
:10028E000000008080808080808080F80000000068
:10029E000082C6AA928282828282000000000084BE
:1002AE00C4A4948C84848484000000000078848428
:1002BE008484848484780000000000784444447868
:1002CE00404040400000000000708888888888A860
:1002DE009068000000000078444444786050484420
:1002EE000000000000708880807008088870000090
:1002FE00000000F8202020202020202000000000F8
:10030E0000888888888888888870000000000088A7
:10031E0088885050505020200000000000828282B9
:10032E0082545454542800000000008888505020F5
:10033E00505088880000000000888850202020201F
:10034E0020200000000000F808081020408080F8EF
:10035E000000000000E0808080808080808080E04F
:10036E0000000080804040404020202010100000FF
:10037E0000E0202020202020202020E0000000008F
:10038E002050880000000000000000000000000067
:10039E0000000000000000FF000000406030100070
:1003AE00000000000000000000000000709010F03F
:1003BE0090F00000000000808080E090909090E02F
:1003CE00000000000000000070888080887000002F
:1003DE0000000010101070909090907000000000BF
:1003EE00000000007088F880887000000000002077
:1003FE004040E0404040404000000000000000004F
:10040E0078888888887808F0000000808080F090D6
:10041E00909090900000000000800000808080800E
:10042E0080800000000000400000404040404040FE
:10043E0040C000000080808090A0C0A0A09000006E
:10044E00000000808080808080808080000000001E
:10045E0000000000FC9292929292000000000000B8
:10046E000000E090909090900000000000000000CE
:10047E007088888888700000000000000000E090FE
:10048E00909090E0808000000000000070909090AE
:10049E0090701010000000000000A0C080808080CE
:1004AE0000000000000000006090806010E000007E
:1004BE00000000004040E0404040402000000000AE
:1004CE00000000009090909090F00000000000005E
:1004DE00000088885050202000000000000000001E
:1004EE0082825454542800000000000000008850FE
:1004FE00202050880000000000000000885050505E
:10050E0060202040000000000000F808102040F895
:10051E00000000000030202040408040402020306D
:10052E0000000040404040404040404040400000FD
:10053E0000C0404020201020204040C0000000009D
:10054E0000000064980000000000000000000000A1
:10055E00000000000000000000000000000000008D
:10056E00000000000000000000000000000000007D
:10057E00000000000000000000000000000000006D
:10058E00000000000000000000000000000000005D
:10059E00000000000000000000000000000000004D
:1005AE00000000000000000000000000000000003D
:1005BE00000000000000000000000000000000002D
:1005CE00000000000000000000000000000000001D
:1005DE00000000000000000000000000000000000D
:1005EE0000000000000000000000000000000000FD
:1005FE0000000000000000000000000000000000ED
:10060E0000000000000000000000000000000000DC
:10061E0000000000000000000000000000000000CC
:10062E0000000000000000000000000000000000BC
:10063E0000000000000000000000000000000000AC
:10064E00000000000000000000000000000000009C
:10065E00000000000000000000000000000000008C
:10066E00000000000000000000000000000000007C
:10067E00000000000000000000000000000000006C
:10068E00000000000000000000000000000000005C
:10069E00000000000000000000000000000000004C
:1006AE00000000000000000000000000000000003C
:1006BE00000000000000000000000000000000002C
:1006CE00000000000000000000000000000000001C
:1006DE00000000000000000000000000000000000C
:1006EE0000000000000000000000000000000000FC
:1006FE0000000000000000000000000000000000EC
:10070E0000000000000000000000000000000000DB
:10071E0000000000000000000000000000000000CB
:10072E000000000000008870002050888888F8883B
:10073E00888800007088002050888888F88888880B
:10074E0000003844007C4040407C4040407C00002B
:10075E007088007088888888888888700000000CEF
:10076E00047488888888888888700000000602448F
:10077E004444444444444438000000000078444457
:10078E0044F44444447800008870002050888888DF
:10079E00F888888800007088002050888888F8883B
:1007AE0088880000708800F8808080F8808080F84B
:1007BE0000007884007884848484848484780000A3
:1007CE000000067A86848484848484780000000085
:1007DE00048C8888888888888870000000000078DB
:1007EE00444444E444444478000000FE0000000009
:1007FE0000000000000000000000003844443800F3
:10080E0000000000000000000000002020F8202062
:10081E0000F80000000000E020E080E00000000092
:10082E000000000000E020E020E0000000000000DA
:10083E000000002060C080000000000000002010BA
:10084E00002050888888F888888800003010202082
:10085E0050888888F8888888000000F80020508822
:10086E008888F888888800001020002050888888A2
:10087E00F888888800000000002050888888F88852
:10088E0088882000000000609090906000000000BA
:10089E0000004020887050888888F888888800007A
:1008AE003010A87050888888F888888800002458EE
:1008BE00887050888888F888888800001020887092
:1008CE0050888888F88888880000000000000000A2
:1008DE001000101020444438402000205088888892
:1008EE00F888888800001020002050888888F888B2
:1008FE00888800007088002050888888F88888884A
:10090E00000048B0002050888888F8888888000049
:10091E000000002050888888F888888820003010D1
:10092E00202050888888F8888888000088700020E9
:10093E0050888888F8888888002020107088205079
:10094E008888F88888880000180870882050888861
:10095E00F8888888000028500070A8508888F88889
:10096E00888800000810708820508888F888888849
:10097E0000000070882050888888F88888880020B9
:10098E00201000F8808080F8808080F800002040E1
:10099E0000E040404040404040E00000301020F871
:1009AE00808080F8808080F8000048B000F8808059
:1009BE0080F8808080F80000102000F8808080F899
:1009CE00808080F80000000000F8808080F8808031
:1009DE0080F8002010689000F8808080F88080F801
:1009EE00000018689000F8808080F88080F8000081
:1009FE0028506090F8808080F88080F800000468AD
:100A0E009000F8808080F88080F80000708800F8F0
:100A1E00808080F8808080F80020804000E0404098
:100A2E004040404040E00000602040E040404040F8
:100A3E00404040E00000201000848484848484843C
:100A4E0084780000102000848484848484848478D4
:100A5E000000304800848484848484848478000078
:100A6E0050A000E040404040404040E000002040A8
:100A7E0000E040404040404040E00000000000E008
:100A8E0040404040404040E0004040200070888898
:100A9E008888888888700000000000000000000030
:100AAE000000000000003010207088888888888838
:100ABE008870000048B000708888888888888870A0
:100ACE000000102000708888888888888870000050
:100ADE000000007088888888888888700020201020
:100AEE0070887088888888888870000018087088D8
:100AFE0070888888888888700000142870887088AC
:100B0E0088888888887000000810708870888888A7
:100B1E008888887000007088007088888888888827
:100B2E008870002040200C748C8888888888887093
:100B3E00000060204C748C8888888888887000003B
:100B4E0050A00C748C88888888888870000020409B
:100B5E000C748C88888888888870000000000C745B
:100B6E008C88888888888870002040200088888833
:100B7E008888888888700000000050205008788887
:100B8E008888887000003010208888888888888837
:100B9E008870000048B000888888888888888870A7
:100BAE000000102000888888888888888870000057
:100BBE0000000098888888888888887000204020E7
:100BCE00048C888888888888887000003010248C6F
:100BDE008888888888888870000048B0048C888847
:100BEE0088888888887000001020048C88888888FF
:100BFE008888887000000000048C8888888888881F
:100C0E0088700020402000888888502020202020D6
:100C1E0000003010208888885020202020200000DE
:100C2E0048B0008888885020202020200000102006
:100C3E000088888850202020202000000000008896
:100C4E008888502020202020002006020307050857
:100C5E00060103070505030503040504050505053F
:100C6E000505050503030505050508050505050527
:100C7E000505050304060507060606050605050512
:100C8E00050705050503040305080404040504050A
:100C9E00030504010204010704050404030403040C
:100CAE000507050505040204060101010101010104
:100CBE000101010101010101010101010101010116
:100CCE0001010101010101010101010505060506F0
:100CDE0007060505050607060607060503030305B1
:100CEE0005050505040505060506050505050505A5
:100CFE000505050505050503050505050505050697
:100D0E00050303060606040303050105050505058F
:100D1E00050605050606060606050505050505066E
:100D2E00060606060505050505001027E8036400FE
:100D3E000A00010000100001100001000000300048
:100D4E00020008004A0D020060014C0D0200620113
:100D5E004C0D0000F894EE27ECBBF1E0FBBFEBBFAF
:100D6E00E5BF8DE0A2E0BB27ED938A95E9F780E021
:100D7E0094E0A0E6ED930197E9F7EEE4FDE08591AE
:100D8E009591009761F0A591B59105901590BF01D1
:100D9E00F00105900D920197E1F7FB01F0CFEFE521
:100DAE00EDBFE4E0EEBFC0E6D1E050C1AA93E8810A
:100DBE00F0E0E130A0E0FA0719F4C098C19813C032
:100DCE00E230A0E0FA0719F4C09AC1980CC0E330E3
:100DDE00A0E0FA0711F4C09805C0E430A0E0FA07CD
:100DEE0019F4C09AC19AAC9A21960895AA931A93AF
:100DFE0010E0183068F4E12FA0E88DD1A981EA2324
:100E0E0011F4C39801C0C39AC59AC5981F5FF1CF5C
:100E1E001881D9C02297D6D141E050E04530E0E0AC
:100E2E005E07DCF5E0E0EE83EF83AE81BF81519784
:100E3E0034F520E030E02830E0E03E07D4F4EE81D7
:100E4E00FF8170968F01EE81FF813096E017F107DA
:100E5E006CF4F801E41BF50B24D1E20FF31FE081D3
:100E6E00E095AE2FC3DF04501040EDCF2F5F3F4F04
:100E7E00E2CFEE81FF817096EE83FF83D6CFC298CC
:100E8E00C29AE5E0E41BAE2F91DF80E49FE101976B
:100E9E00F1F7AC984F5F5F4FC1CF9BD12896089565
:100EAE00AA93598048808FC0AA93AB81BC81A0348D
:100EBE00E0E0BE0754F4A981BA81909734F4AC8176
:100ECE00AA231AF0AA81AA230AF411C0E881E030FD
:100EDE0031F0E981FA81E5D0E8D0E12906C0E98157
:100EEE00FA81DFD0E2D0E095E121DB01EC9325968B
:100EFE000895AA936A80E881E61558F07B80E9810F
:100F0E00E71528F0E5D0A0E0CFDF7394F8CF639417
:100F1E00F2CF24960895AA931A93E981F0E0B09740
:100F2E00E85AF34F1491642CE42DF0E03E96A62D72
:100F3E00B0E0AE17BF079CF5752CA12FBB27E52D92
:100F4E00F0E0EA0FFB1FA72DB0E0AE17BF072CF5A0
:100F5E00E981F0E0B097AEE0B0E0F5D0EA5DFF4F8A
:100F6E00BF01A62DBB27E42DBCD0E60FF71F649161
:100F7E00A72DBB27E52DB5D0A0E8B0E0D4D0A62F85
:100F8E00B0E0EA23FB23309719F0A2D0A1E002C013
:100F9E009FD0A0E089DF7394D0CF6394C5CFE12FAB
:100FAE00EF5F5E0E18810FC0BA93AA93A881B98124
:100FBE00EC91E03041F0AC91AEDFE881F9813196F1
:100FCE00E883F983F3CF2296089590D01A931CB13B
:100FDE00992091F0E12FF0E0E332A0E0FA0711F44E
:100FEE0099240AC0E632A0E0FA0721F48DD0A1E1DF
:100FFE0057DF02C0A12F8FDF143211F4992009F0B0
:10100E000CC0E0E0EA93EA93E0E4EA93A0E271DF39
:10101E007BD0A1E045DFE1E09E2E199109C066D09C
:10102E00E6E0E2BF8394E2E0E81511F4F3DE8824F3
:10103E00E991EFBFF991E991B991A99199918991AE
:10104E0079916991F990199009901895EFE3E7BBA2
:10105E00E0E0E8BBE0E3E4BBE0E0E5BBE0E8E1BBF9
:10106E00E0E0E2BBE4E0E3BFE6E0E2BFE1E0E9BFDF
:10107E00E2E0EBB9E0E9EAB9E6E8E0BDEDE0E0BDBB
:10108E00E4E0E9B9789440D0A1E00ADFA0E6B1E04F
:10109E008BDF3AD0A1E104DFA2E6B1E085DFFFCF1E
:1010AE00FFCF4AD0EC59FE4F0895BF01AB81BC81F2
:1010BE00E8E0F0E063D0E60FF71FBF011080EB8190
:1010CE00FC81A7E0B0E05FD0A0E8B0E02CD008959E
:1010DE00E72DF0E0FA93EA93E62DF0E0FA93EA9327
:1010EE000895F0E068D0EA1BFB0B08950A921A925D
:1010FE00FA926A937A938A939A93AA93BA93EA93FB
:10110E00FA93EFB7EA930895E3E0EA930895F19521
:10111E00E195F0400895EE230E2EEA2F19F0E69594
:10112E000A94E9F70895EE230E2EFD0121F0F695AF
:10113E00E7950A94E1F70895EE0FFF1FEE0FFF1FDC
:10114E00EE0FFF1F0895FA9FF02DEB9FF00DEA9F13
:10115E00E02DF10D08950024112490E1AA0FBB1F7C
:10116E00001C111C0E1A1F0A18F40E0E1F1E01C0B1
:10117E00A1609A9599F7FD01D00108950ED0EBDF8D
:10118E000EF4C5DF0895E894F7FF02C0C0DF68943F
:10119E00EA23FB230EF4BBDF0895E894F7FF02C0A9
:1011AE00B6DF6894B7FF06C0A095B095119600F80B
:1011BE00039400FA08951B2EBF2FF12D1A2EAE2F79
:1011CE00E12D08955A934A933A932A931A930A93C8
:1011DE0008955D814C813B812A8119810881089592
:00000001FF
